{
  "address": "0x5FbDB2315678afecb367f032d93F642f64180aa3",
  "abi": [
    {
      "inputs": [
        {
          "internalType": "uint256",
          "name": "transferDeadline",
          "type": "uint256"
        }
      ],
      "stateMutability": "nonpayable",
      "type": "constructor"
    },
    {
      "anonymous": false,
      "inputs": [
        {
          "indexed": true,
          "internalType": "address",
          "name": "owner",
          "type": "address"
        },
        {
          "indexed": true,
          "internalType": "address",
          "name": "approved",
          "type": "address"
        },
        {
          "indexed": true,
          "internalType": "uint256",
          "name": "tokenId",
          "type": "uint256"
        }
      ],
      "name": "Approval",
      "type": "event"
    },
    {
      "anonymous": false,
      "inputs": [
        {
          "indexed": true,
          "internalType": "address",
          "name": "owner",
          "type": "address"
        },
        {
          "indexed": true,
          "internalType": "address",
          "name": "operator",
          "type": "address"
        },
        {
          "indexed": false,
          "internalType": "bool",
          "name": "approved",
          "type": "bool"
        }
      ],
      "name": "ApprovalForAll",
      "type": "event"
    },
    {
      "anonymous": false,
      "inputs": [
        {
          "indexed": true,
          "internalType": "address",
          "name": "from",
          "type": "address"
        },
        {
          "indexed": true,
          "internalType": "address",
          "name": "to",
          "type": "address"
        },
        {
          "indexed": true,
          "internalType": "uint256",
          "name": "tokenId",
          "type": "uint256"
        }
      ],
      "name": "Transfer",
      "type": "event"
    },
    {
      "anonymous": false,
      "inputs": [
        {
          "indexed": true,
          "internalType": "uint256",
          "name": "new_transferDeadline",
          "type": "uint256"
        },
        {
          "indexed": true,
          "internalType": "uint256",
          "name": "old_transferDeadline",
          "type": "uint256"
        },
        {
          "indexed": false,
          "internalType": "address",
          "name": "changerAddress",
          "type": "address"
        }
      ],
      "name": "transferDeadlineChanged",
      "type": "event"
    },
    {
      "inputs": [
        {
          "internalType": "address",
          "name": "to",
          "type": "address"
        },
        {
          "internalType": "uint256",
          "name": "tokenId",
          "type": "uint256"
        }
      ],
      "name": "approve",
      "outputs": [],
      "stateMutability": "nonpayable",
      "type": "function"
    },
    {
      "inputs": [
        {
          "internalType": "address",
          "name": "owner",
          "type": "address"
        }
      ],
      "name": "balanceOf",
      "outputs": [
        {
          "internalType": "uint256",
          "name": "",
          "type": "uint256"
        }
      ],
      "stateMutability": "view",
      "type": "function"
    },
    {
      "inputs": [],
      "name": "buyTicket",
      "outputs": [
        {
          "internalType": "uint256",
          "name": "",
          "type": "uint256"
        }
      ],
      "stateMutability": "nonpayable",
      "type": "function"
    },
    {
      "inputs": [
        {
          "internalType": "uint256",
          "name": "tokenId",
          "type": "uint256"
        }
      ],
      "name": "getApproved",
      "outputs": [
        {
          "internalType": "address",
          "name": "",
          "type": "address"
        }
      ],
      "stateMutability": "view",
      "type": "function"
    },
    {
      "inputs": [],
      "name": "get_transferDeadline",
      "outputs": [
        {
          "internalType": "uint256",
          "name": "",
          "type": "uint256"
        }
      ],
      "stateMutability": "view",
      "type": "function"
    },
    {
      "inputs": [
        {
          "internalType": "address",
          "name": "owner",
          "type": "address"
        },
        {
          "internalType": "address",
          "name": "operator",
          "type": "address"
        }
      ],
      "name": "isApprovedForAll",
      "outputs": [
        {
          "internalType": "bool",
          "name": "",
          "type": "bool"
        }
      ],
      "stateMutability": "view",
      "type": "function"
    },
    {
      "inputs": [],
      "name": "name",
      "outputs": [
        {
          "internalType": "string",
          "name": "",
          "type": "string"
        }
      ],
      "stateMutability": "view",
      "type": "function"
    },
    {
      "inputs": [
        {
          "internalType": "uint256",
          "name": "tokenId",
          "type": "uint256"
        }
      ],
      "name": "ownerOf",
      "outputs": [
        {
          "internalType": "address",
          "name": "",
          "type": "address"
        }
      ],
      "stateMutability": "view",
      "type": "function"
    },
    {
      "inputs": [
        {
          "internalType": "address",
          "name": "from",
          "type": "address"
        },
        {
          "internalType": "address",
          "name": "to",
          "type": "address"
        },
        {
          "internalType": "uint256",
          "name": "tokenId",
          "type": "uint256"
        }
      ],
      "name": "safeTransferFrom",
      "outputs": [],
      "stateMutability": "nonpayable",
      "type": "function"
    },
    {
      "inputs": [
        {
          "internalType": "address",
          "name": "from",
          "type": "address"
        },
        {
          "internalType": "address",
          "name": "to",
          "type": "address"
        },
        {
          "internalType": "uint256",
          "name": "tokenId",
          "type": "uint256"
        },
        {
          "internalType": "bytes",
          "name": "_data",
          "type": "bytes"
        }
      ],
      "name": "safeTransferFrom",
      "outputs": [],
      "stateMutability": "nonpayable",
      "type": "function"
    },
    {
      "inputs": [
        {
          "internalType": "address",
          "name": "operator",
          "type": "address"
        },
        {
          "internalType": "bool",
          "name": "approved",
          "type": "bool"
        }
      ],
      "name": "setApprovalForAll",
      "outputs": [],
      "stateMutability": "nonpayable",
      "type": "function"
    },
    {
      "inputs": [
        {
          "internalType": "uint256",
          "name": "transferDeadline",
          "type": "uint256"
        }
      ],
      "name": "set_transferDeadline",
      "outputs": [],
      "stateMutability": "nonpayable",
      "type": "function"
    },
    {
      "inputs": [
        {
          "internalType": "bytes4",
          "name": "interfaceId",
          "type": "bytes4"
        }
      ],
      "name": "supportsInterface",
      "outputs": [
        {
          "internalType": "bool",
          "name": "",
          "type": "bool"
        }
      ],
      "stateMutability": "view",
      "type": "function"
    },
    {
      "inputs": [],
      "name": "symbol",
      "outputs": [
        {
          "internalType": "string",
          "name": "",
          "type": "string"
        }
      ],
      "stateMutability": "view",
      "type": "function"
    },
    {
      "inputs": [
        {
          "internalType": "uint256",
          "name": "tokenId",
          "type": "uint256"
        }
      ],
      "name": "tokenURI",
      "outputs": [
        {
          "internalType": "string",
          "name": "",
          "type": "string"
        }
      ],
      "stateMutability": "view",
      "type": "function"
    },
    {
      "inputs": [
        {
          "internalType": "address",
          "name": "from",
          "type": "address"
        },
        {
          "internalType": "address",
          "name": "to",
          "type": "address"
        },
        {
          "internalType": "uint256",
          "name": "tokenId",
          "type": "uint256"
        }
      ],
      "name": "transferFrom",
      "outputs": [],
      "stateMutability": "nonpayable",
      "type": "function"
    }
  ],
  "transactionHash": "0x9bf871cf2c65bfcf95b7e67d46f2b8c75ce627e1f15c6eff04e10e7b5c74e740",
  "args": [
    1642530416593
  ],
  "solcInputHash": "28f7cdf566d9e9c5f9007c19a86b329e",
  "bytecode": "0x60806040523480156200001157600080fd5b5060405162002f0238038062002f028339818101604052810190620000379190620004de565b6040518060400160405280600d81526020017f5469636b65744f666669636531000000000000000000000000000000000000008152506040518060400160405280600381526020017f544f3100000000000000000000000000000000000000000000000000000000008152508160009080519060200190620000bb92919062000417565b508060019080519060200190620000d492919062000417565b505050620000e8816200010060201b60201c565b620000f86200014f60201b60201c565b505062000776565b6000600754905081600781905550806007547ffcf6fe54a7e3d0e1e9928c58aaf4a9a2b757e783323259a757c7486bb6f003573360405162000143919062000569565b60405180910390a35050565b60006200016860066200019c60201b62000b071760201c565b6000620001816006620001b260201b62000b1d1760201c565b9050620001953382620001c060201b60201c565b8091505090565b6001816000016000828254019250508190555050565b600081600001549050919050565b600073ffffffffffffffffffffffffffffffffffffffff168273ffffffffffffffffffffffffffffffffffffffff16141562000233576040517f08c379a00000000000000000000000000000000000000000000000000000000081526004016200022a90620005a8565b60405180910390fd5b6200024481620003a660201b60201c565b1562000287576040517f08c379a00000000000000000000000000000000000000000000000000000000081526004016200027e9062000586565b60405180910390fd5b6200029b600083836200041260201b60201c565b6001600360008473ffffffffffffffffffffffffffffffffffffffff1673ffffffffffffffffffffffffffffffffffffffff1681526020019081526020016000206000828254620002ed9190620005db565b92505081905550816002600083815260200190815260200160002060006101000a81548173ffffffffffffffffffffffffffffffffffffffff021916908373ffffffffffffffffffffffffffffffffffffffff160217905550808273ffffffffffffffffffffffffffffffffffffffff16600073ffffffffffffffffffffffffffffffffffffffff167fddf252ad1be2c89b69c2b068fc378daa952ba7f163c4a11628f55a4df523b3ef60405160405180910390a45050565b60008073ffffffffffffffffffffffffffffffffffffffff166002600084815260200190815260200160002060009054906101000a900473ffffffffffffffffffffffffffffffffffffffff1673ffffffffffffffffffffffffffffffffffffffff1614159050919050565b505050565b828054620004259062000676565b90600052602060002090601f01602090048101928262000449576000855562000495565b82601f106200046457805160ff191683800117855562000495565b8280016001018555821562000495579182015b828111156200049457825182559160200191906001019062000477565b5b509050620004a49190620004a8565b5090565b5b80821115620004c3576000816000905550600101620004a9565b5090565b600081519050620004d8816200075c565b92915050565b600060208284031215620004f157600080fd5b60006200050184828501620004c7565b91505092915050565b620005158162000638565b82525050565b60006200052a601c83620005ca565b915062000537826200070a565b602082019050919050565b600062000551602083620005ca565b91506200055e8262000733565b602082019050919050565b60006020820190506200058060008301846200050a565b92915050565b60006020820190508181036000830152620005a1816200051b565b9050919050565b60006020820190508181036000830152620005c38162000542565b9050919050565b600082825260208201905092915050565b6000620005e8826200066c565b9150620005f5836200066c565b9250827fffffffffffffffffffffffffffffffffffffffffffffffffffffffffffffffff038211156200062d576200062c620006ac565b5b828201905092915050565b600062000645826200064c565b9050919050565b600073ffffffffffffffffffffffffffffffffffffffff82169050919050565b6000819050919050565b600060028204905060018216806200068f57607f821691505b60208210811415620006a657620006a5620006db565b5b50919050565b7f4e487b7100000000000000000000000000000000000000000000000000000000600052601160045260246000fd5b7f4e487b7100000000000000000000000000000000000000000000000000000000600052602260045260246000fd5b7f4552433732313a20746f6b656e20616c7265616479206d696e74656400000000600082015250565b7f4552433732313a206d696e7420746f20746865207a65726f2061646472657373600082015250565b62000767816200066c565b81146200077357600080fd5b50565b61277c80620007866000396000f3fe608060405234801561001057600080fd5b50600436106101005760003560e01c8063940a3f8811610097578063c7d959a811610066578063c7d959a8146102a9578063c87b56dd146102c7578063e985e9c5146102f7578063edca914c1461032757610100565b8063940a3f881461023757806395d89b4114610253578063a22cb46514610271578063b88d4fde1461028d57610100565b806323b872dd116100d357806323b872dd1461019f57806342842e0e146101bb5780636352211e146101d757806370a082311461020757610100565b806301ffc9a71461010557806306fdde0314610135578063081812fc14610153578063095ea7b314610183575b600080fd5b61011f600480360381019061011a919061197e565b610345565b60405161012c9190611d3e565b60405180910390f35b61013d610427565b60405161014a9190611d59565b60405180910390f35b61016d600480360381019061016891906119d0565b6104b9565b60405161017a9190611cd7565b60405180910390f35b61019d60048036038101906101989190611942565b61053e565b005b6101b960048036038101906101b4919061183c565b610656565b005b6101d560048036038101906101d0919061183c565b6106b6565b005b6101f160048036038101906101ec91906119d0565b6106d6565b6040516101fe9190611cd7565b60405180910390f35b610221600480360381019061021c91906117d7565b610788565b60405161022e9190611f3b565b60405180910390f35b610251600480360381019061024c91906119d0565b610840565b005b61025b61088d565b6040516102689190611d59565b60405180910390f35b61028b60048036038101906102869190611906565b61091f565b005b6102a760048036038101906102a2919061188b565b610935565b005b6102b1610997565b6040516102be9190611f3b565b60405180910390f35b6102e160048036038101906102dc91906119d0565b6109a1565b6040516102ee9190611d59565b60405180910390f35b610311600480360381019061030c9190611800565b610a48565b60405161031e9190611d3e565b60405180910390f35b61032f610adc565b60405161033c9190611f3b565b60405180910390f35b60007f80ac58cd000000000000000000000000000000000000000000000000000000007bffffffffffffffffffffffffffffffffffffffffffffffffffffffff1916827bffffffffffffffffffffffffffffffffffffffffffffffffffffffff1916148061041057507f5b5e139f000000000000000000000000000000000000000000000000000000007bffffffffffffffffffffffffffffffffffffffffffffffffffffffff1916827bffffffffffffffffffffffffffffffffffffffffffffffffffffffff1916145b80610420575061041f82610b2b565b5b9050919050565b60606000805461043690612160565b80601f016020809104026020016040519081016040528092919081815260200182805461046290612160565b80156104af5780601f10610484576101008083540402835291602001916104af565b820191906000526020600020905b81548152906001019060200180831161049257829003601f168201915b5050505050905090565b60006104c482610b95565b610503576040517f08c379a00000000000000000000000000000000000000000000000000000000081526004016104fa90611e9b565b60405180910390fd5b6004600083815260200190815260200160002060009054906101000a900473ffffffffffffffffffffffffffffffffffffffff169050919050565b6000610549826106d6565b90508073ffffffffffffffffffffffffffffffffffffffff168373ffffffffffffffffffffffffffffffffffffffff1614156105ba576040517f08c379a00000000000000000000000000000000000000000000000000000000081526004016105b190611efb565b60405180910390fd5b8073ffffffffffffffffffffffffffffffffffffffff166105d9610c01565b73ffffffffffffffffffffffffffffffffffffffff161480610608575061060781610602610c01565b610a48565b5b610647576040517f08c379a000000000000000000000000000000000000000000000000000000000815260040161063e90611e1b565b60405180910390fd5b6106518383610c09565b505050565b610667610661610c01565b82610cc2565b6106a6576040517f08c379a000000000000000000000000000000000000000000000000000000000815260040161069d90611f1b565b60405180910390fd5b6106b1838383610da0565b505050565b6106d183838360405180602001604052806000815250610935565b505050565b6000806002600084815260200190815260200160002060009054906101000a900473ffffffffffffffffffffffffffffffffffffffff169050600073ffffffffffffffffffffffffffffffffffffffff168173ffffffffffffffffffffffffffffffffffffffff16141561077f576040517f08c379a000000000000000000000000000000000000000000000000000000000815260040161077690611e5b565b60405180910390fd5b80915050919050565b60008073ffffffffffffffffffffffffffffffffffffffff168273ffffffffffffffffffffffffffffffffffffffff1614156107f9576040517f08c379a00000000000000000000000000000000000000000000000000000000081526004016107f090611e3b565b60405180910390fd5b600360008373ffffffffffffffffffffffffffffffffffffffff1673ffffffffffffffffffffffffffffffffffffffff168152602001908152602001600020549050919050565b6000600754905081600781905550806007547ffcf6fe54a7e3d0e1e9928c58aaf4a9a2b757e783323259a757c7486bb6f00357336040516108819190611cd7565b60405180910390a35050565b60606001805461089c90612160565b80601f01602080910402602001604051908101604052809291908181526020018280546108c890612160565b80156109155780601f106108ea57610100808354040283529160200191610915565b820191906000526020600020905b8154815290600101906020018083116108f857829003601f168201915b5050505050905090565b61093161092a610c01565b8383610ffc565b5050565b610946610940610c01565b83610cc2565b610985576040517f08c379a000000000000000000000000000000000000000000000000000000000815260040161097c90611f1b565b60405180910390fd5b61099184848484611169565b50505050565b6000600754905090565b60606109ac82610b95565b6109eb576040517f08c379a00000000000000000000000000000000000000000000000000000000081526004016109e290611edb565b60405180910390fd5b60006109f56111c5565b90506000815111610a155760405180602001604052806000815250610a40565b80610a1f846111dc565b604051602001610a30929190611cb3565b6040516020818303038152906040525b915050919050565b6000600560008473ffffffffffffffffffffffffffffffffffffffff1673ffffffffffffffffffffffffffffffffffffffff16815260200190815260200160002060008373ffffffffffffffffffffffffffffffffffffffff1673ffffffffffffffffffffffffffffffffffffffff16815260200190815260200160002060009054906101000a900460ff16905092915050565b6000610ae86006610b07565b6000610af46006610b1d565b9050610b003382611389565b8091505090565b6001816000016000828254019250508190555050565b600081600001549050919050565b60007f01ffc9a7000000000000000000000000000000000000000000000000000000007bffffffffffffffffffffffffffffffffffffffffffffffffffffffff1916827bffffffffffffffffffffffffffffffffffffffffffffffffffffffff1916149050919050565b60008073ffffffffffffffffffffffffffffffffffffffff166002600084815260200190815260200160002060009054906101000a900473ffffffffffffffffffffffffffffffffffffffff1673ffffffffffffffffffffffffffffffffffffffff1614159050919050565b600033905090565b816004600083815260200190815260200160002060006101000a81548173ffffffffffffffffffffffffffffffffffffffff021916908373ffffffffffffffffffffffffffffffffffffffff160217905550808273ffffffffffffffffffffffffffffffffffffffff16610c7c836106d6565b73ffffffffffffffffffffffffffffffffffffffff167f8c5be1e5ebec7d5bd14f71427d1e84f3dd0314c0f7b2291e5b200ac8c7c3b92560405160405180910390a45050565b6000610ccd82610b95565b610d0c576040517f08c379a0000000000000000000000000000000000000000000000000000000008152600401610d0390611dfb565b60405180910390fd5b6000610d17836106d6565b90508073ffffffffffffffffffffffffffffffffffffffff168473ffffffffffffffffffffffffffffffffffffffff161480610d8657508373ffffffffffffffffffffffffffffffffffffffff16610d6e846104b9565b73ffffffffffffffffffffffffffffffffffffffff16145b80610d975750610d968185610a48565b5b91505092915050565b8273ffffffffffffffffffffffffffffffffffffffff16610dc0826106d6565b73ffffffffffffffffffffffffffffffffffffffff1614610e16576040517f08c379a0000000000000000000000000000000000000000000000000000000008152600401610e0d90611ebb565b60405180910390fd5b600073ffffffffffffffffffffffffffffffffffffffff168273ffffffffffffffffffffffffffffffffffffffff161415610e86576040517f08c379a0000000000000000000000000000000000000000000000000000000008152600401610e7d90611dbb565b60405180910390fd5b610e91838383611557565b610e9c600082610c09565b6001600360008573ffffffffffffffffffffffffffffffffffffffff1673ffffffffffffffffffffffffffffffffffffffff1681526020019081526020016000206000828254610eec9190612076565b925050819055506001600360008473ffffffffffffffffffffffffffffffffffffffff1673ffffffffffffffffffffffffffffffffffffffff1681526020019081526020016000206000828254610f439190611fef565b92505081905550816002600083815260200190815260200160002060006101000a81548173ffffffffffffffffffffffffffffffffffffffff021916908373ffffffffffffffffffffffffffffffffffffffff160217905550808273ffffffffffffffffffffffffffffffffffffffff168473ffffffffffffffffffffffffffffffffffffffff167fddf252ad1be2c89b69c2b068fc378daa952ba7f163c4a11628f55a4df523b3ef60405160405180910390a4505050565b8173ffffffffffffffffffffffffffffffffffffffff168373ffffffffffffffffffffffffffffffffffffffff16141561106b576040517f08c379a000000000000000000000000000000000000000000000000000000000815260040161106290611ddb565b60405180910390fd5b80600560008573ffffffffffffffffffffffffffffffffffffffff1673ffffffffffffffffffffffffffffffffffffffff16815260200190815260200160002060008473ffffffffffffffffffffffffffffffffffffffff1673ffffffffffffffffffffffffffffffffffffffff16815260200190815260200160002060006101000a81548160ff0219169083151502179055508173ffffffffffffffffffffffffffffffffffffffff168373ffffffffffffffffffffffffffffffffffffffff167f17307eab39ab6107e8899845ad3d59bd9653f200f220920489ca2b5937696c318360405161115c9190611d3e565b60405180910390a3505050565b611174848484610da0565b6111808484848461155c565b6111bf576040517f08c379a00000000000000000000000000000000000000000000000000000000081526004016111b690611d7b565b60405180910390fd5b50505050565b606060405180602001604052806000815250905090565b60606000821415611224576040518060400160405280600181526020017f30000000000000000000000000000000000000000000000000000000000000008152509050611384565b600082905060005b6000821461125657808061123f906121c3565b915050600a8261124f9190612045565b915061122c565b60008167ffffffffffffffff811115611298577f4e487b7100000000000000000000000000000000000000000000000000000000600052604160045260246000fd5b6040519080825280601f01601f1916602001820160405280156112ca5781602001600182028036833780820191505090505b5090505b6000851461137d576001826112e39190612076565b9150600a856112f2919061220c565b60306112fe9190611fef565b60f81b81838151811061133a577f4e487b7100000000000000000000000000000000000000000000000000000000600052603260045260246000fd5b60200101907effffffffffffffffffffffffffffffffffffffffffffffffffffffffffffff1916908160001a905350600a856113769190612045565b94506112ce565b8093505050505b919050565b600073ffffffffffffffffffffffffffffffffffffffff168273ffffffffffffffffffffffffffffffffffffffff1614156113f9576040517f08c379a00000000000000000000000000000000000000000000000000000000081526004016113f090611e7b565b60405180910390fd5b61140281610b95565b15611442576040517f08c379a000000000000000000000000000000000000000000000000000000000815260040161143990611d9b565b60405180910390fd5b61144e60008383611557565b6001600360008473ffffffffffffffffffffffffffffffffffffffff1673ffffffffffffffffffffffffffffffffffffffff168152602001908152602001600020600082825461149e9190611fef565b92505081905550816002600083815260200190815260200160002060006101000a81548173ffffffffffffffffffffffffffffffffffffffff021916908373ffffffffffffffffffffffffffffffffffffffff160217905550808273ffffffffffffffffffffffffffffffffffffffff16600073ffffffffffffffffffffffffffffffffffffffff167fddf252ad1be2c89b69c2b068fc378daa952ba7f163c4a11628f55a4df523b3ef60405160405180910390a45050565b505050565b600061157d8473ffffffffffffffffffffffffffffffffffffffff166116f3565b156116e6578373ffffffffffffffffffffffffffffffffffffffff1663150b7a026115a6610c01565b8786866040518563ffffffff1660e01b81526004016115c89493929190611cf2565b602060405180830381600087803b1580156115e257600080fd5b505af192505050801561161357506040513d601f19601f8201168201806040525081019061161091906119a7565b60015b611696573d8060008114611643576040519150601f19603f3d011682016040523d82523d6000602084013e611648565b606091505b5060008151141561168e576040517f08c379a000000000000000000000000000000000000000000000000000000000815260040161168590611d7b565b60405180910390fd5b805181602001fd5b63150b7a0260e01b7bffffffffffffffffffffffffffffffffffffffffffffffffffffffff1916817bffffffffffffffffffffffffffffffffffffffffffffffffffffffff1916149150506116eb565b600190505b949350505050565b600080823b905060008111915050919050565b600061171961171484611f7b565b611f56565b90508281526020810184848401111561173157600080fd5b61173c84828561211e565b509392505050565b600081359050611753816126ea565b92915050565b60008135905061176881612701565b92915050565b60008135905061177d81612718565b92915050565b60008151905061179281612718565b92915050565b600082601f8301126117a957600080fd5b81356117b9848260208601611706565b91505092915050565b6000813590506117d18161272f565b92915050565b6000602082840312156117e957600080fd5b60006117f784828501611744565b91505092915050565b6000806040838503121561181357600080fd5b600061182185828601611744565b925050602061183285828601611744565b9150509250929050565b60008060006060848603121561185157600080fd5b600061185f86828701611744565b935050602061187086828701611744565b9250506040611881868287016117c2565b9150509250925092565b600080600080608085870312156118a157600080fd5b60006118af87828801611744565b94505060206118c087828801611744565b93505060406118d1878288016117c2565b925050606085013567ffffffffffffffff8111156118ee57600080fd5b6118fa87828801611798565b91505092959194509250565b6000806040838503121561191957600080fd5b600061192785828601611744565b925050602061193885828601611759565b9150509250929050565b6000806040838503121561195557600080fd5b600061196385828601611744565b9250506020611974858286016117c2565b9150509250929050565b60006020828403121561199057600080fd5b600061199e8482850161176e565b91505092915050565b6000602082840312156119b957600080fd5b60006119c784828501611783565b91505092915050565b6000602082840312156119e257600080fd5b60006119f0848285016117c2565b91505092915050565b611a02816120aa565b82525050565b611a11816120bc565b82525050565b6000611a2282611fac565b611a2c8185611fc2565b9350611a3c81856020860161212d565b611a45816122f9565b840191505092915050565b6000611a5b82611fb7565b611a658185611fd3565b9350611a7581856020860161212d565b611a7e816122f9565b840191505092915050565b6000611a9482611fb7565b611a9e8185611fe4565b9350611aae81856020860161212d565b80840191505092915050565b6000611ac7603283611fd3565b9150611ad28261230a565b604082019050919050565b6000611aea601c83611fd3565b9150611af582612359565b602082019050919050565b6000611b0d602483611fd3565b9150611b1882612382565b604082019050919050565b6000611b30601983611fd3565b9150611b3b826123d1565b602082019050919050565b6000611b53602c83611fd3565b9150611b5e826123fa565b604082019050919050565b6000611b76603883611fd3565b9150611b8182612449565b604082019050919050565b6000611b99602a83611fd3565b9150611ba482612498565b604082019050919050565b6000611bbc602983611fd3565b9150611bc7826124e7565b604082019050919050565b6000611bdf602083611fd3565b9150611bea82612536565b602082019050919050565b6000611c02602c83611fd3565b9150611c0d8261255f565b604082019050919050565b6000611c25602983611fd3565b9150611c30826125ae565b604082019050919050565b6000611c48602f83611fd3565b9150611c53826125fd565b604082019050919050565b6000611c6b602183611fd3565b9150611c768261264c565b604082019050919050565b6000611c8e603183611fd3565b9150611c998261269b565b604082019050919050565b611cad81612114565b82525050565b6000611cbf8285611a89565b9150611ccb8284611a89565b91508190509392505050565b6000602082019050611cec60008301846119f9565b92915050565b6000608082019050611d0760008301876119f9565b611d1460208301866119f9565b611d216040830185611ca4565b8181036060830152611d338184611a17565b905095945050505050565b6000602082019050611d536000830184611a08565b92915050565b60006020820190508181036000830152611d738184611a50565b905092915050565b60006020820190508181036000830152611d9481611aba565b9050919050565b60006020820190508181036000830152611db481611add565b9050919050565b60006020820190508181036000830152611dd481611b00565b9050919050565b60006020820190508181036000830152611df481611b23565b9050919050565b60006020820190508181036000830152611e1481611b46565b9050919050565b60006020820190508181036000830152611e3481611b69565b9050919050565b60006020820190508181036000830152611e5481611b8c565b9050919050565b60006020820190508181036000830152611e7481611baf565b9050919050565b60006020820190508181036000830152611e9481611bd2565b9050919050565b60006020820190508181036000830152611eb481611bf5565b9050919050565b60006020820190508181036000830152611ed481611c18565b9050919050565b60006020820190508181036000830152611ef481611c3b565b9050919050565b60006020820190508181036000830152611f1481611c5e565b9050919050565b60006020820190508181036000830152611f3481611c81565b9050919050565b6000602082019050611f506000830184611ca4565b92915050565b6000611f60611f71565b9050611f6c8282612192565b919050565b6000604051905090565b600067ffffffffffffffff821115611f9657611f956122ca565b5b611f9f826122f9565b9050602081019050919050565b600081519050919050565b600081519050919050565b600082825260208201905092915050565b600082825260208201905092915050565b600081905092915050565b6000611ffa82612114565b915061200583612114565b9250827fffffffffffffffffffffffffffffffffffffffffffffffffffffffffffffffff0382111561203a5761203961223d565b5b828201905092915050565b600061205082612114565b915061205b83612114565b92508261206b5761206a61226c565b5b828204905092915050565b600061208182612114565b915061208c83612114565b92508282101561209f5761209e61223d565b5b828203905092915050565b60006120b5826120f4565b9050919050565b60008115159050919050565b60007fffffffff0000000000000000000000000000000000000000000000000000000082169050919050565b600073ffffffffffffffffffffffffffffffffffffffff82169050919050565b6000819050919050565b82818337600083830152505050565b60005b8381101561214b578082015181840152602081019050612130565b8381111561215a576000848401525b50505050565b6000600282049050600182168061217857607f821691505b6020821081141561218c5761218b61229b565b5b50919050565b61219b826122f9565b810181811067ffffffffffffffff821117156121ba576121b96122ca565b5b80604052505050565b60006121ce82612114565b91507fffffffffffffffffffffffffffffffffffffffffffffffffffffffffffffffff8214156122015761220061223d565b5b600182019050919050565b600061221782612114565b915061222283612114565b9250826122325761223161226c565b5b828206905092915050565b7f4e487b7100000000000000000000000000000000000000000000000000000000600052601160045260246000fd5b7f4e487b7100000000000000000000000000000000000000000000000000000000600052601260045260246000fd5b7f4e487b7100000000000000000000000000000000000000000000000000000000600052602260045260246000fd5b7f4e487b7100000000000000000000000000000000000000000000000000000000600052604160045260246000fd5b6000601f19601f8301169050919050565b7f4552433732313a207472616e7366657220746f206e6f6e20455243373231526560008201527f63656976657220696d706c656d656e7465720000000000000000000000000000602082015250565b7f4552433732313a20746f6b656e20616c7265616479206d696e74656400000000600082015250565b7f4552433732313a207472616e7366657220746f20746865207a65726f2061646460008201527f7265737300000000000000000000000000000000000000000000000000000000602082015250565b7f4552433732313a20617070726f766520746f2063616c6c657200000000000000600082015250565b7f4552433732313a206f70657261746f7220717565727920666f72206e6f6e657860008201527f697374656e7420746f6b656e0000000000000000000000000000000000000000602082015250565b7f4552433732313a20617070726f76652063616c6c6572206973206e6f74206f7760008201527f6e6572206e6f7220617070726f76656420666f7220616c6c0000000000000000602082015250565b7f4552433732313a2062616c616e636520717565727920666f7220746865207a6560008201527f726f206164647265737300000000000000000000000000000000000000000000602082015250565b7f4552433732313a206f776e657220717565727920666f72206e6f6e657869737460008201527f656e7420746f6b656e0000000000000000000000000000000000000000000000602082015250565b7f4552433732313a206d696e7420746f20746865207a65726f2061646472657373600082015250565b7f4552433732313a20617070726f76656420717565727920666f72206e6f6e657860008201527f697374656e7420746f6b656e0000000000000000000000000000000000000000602082015250565b7f4552433732313a207472616e73666572206f6620746f6b656e2074686174206960008201527f73206e6f74206f776e0000000000000000000000000000000000000000000000602082015250565b7f4552433732314d657461646174613a2055524920717565727920666f72206e6f60008201527f6e6578697374656e7420746f6b656e0000000000000000000000000000000000602082015250565b7f4552433732313a20617070726f76616c20746f2063757272656e74206f776e6560008201527f7200000000000000000000000000000000000000000000000000000000000000602082015250565b7f4552433732313a207472616e736665722063616c6c6572206973206e6f74206f60008201527f776e6572206e6f7220617070726f766564000000000000000000000000000000602082015250565b6126f3816120aa565b81146126fe57600080fd5b50565b61270a816120bc565b811461271557600080fd5b50565b612721816120c8565b811461272c57600080fd5b50565b61273881612114565b811461274357600080fd5b5056fea26469706673582212200968bdc915cc1ca49323b0b5ca04596ae58f13f4d3a5915ef4e26d75b22e008864736f6c63430008010033",
  "devdoc": {
    "kind": "dev",
    "methods": {
      "approve(address,uint256)": {
        "details": "See {IERC721-approve}."
      },
      "balanceOf(address)": {
        "details": "See {IERC721-balanceOf}."
      },
      "getApproved(uint256)": {
        "details": "See {IERC721-getApproved}."
      },
      "isApprovedForAll(address,address)": {
        "details": "See {IERC721-isApprovedForAll}."
      },
      "name()": {
        "details": "See {IERC721Metadata-name}."
      },
      "ownerOf(uint256)": {
        "details": "See {IERC721-ownerOf}."
      },
      "safeTransferFrom(address,address,uint256)": {
        "details": "See {IERC721-safeTransferFrom}."
      },
      "safeTransferFrom(address,address,uint256,bytes)": {
        "details": "See {IERC721-safeTransferFrom}."
      },
      "setApprovalForAll(address,bool)": {
        "details": "See {IERC721-setApprovalForAll}."
      },
      "supportsInterface(bytes4)": {
        "details": "See {IERC165-supportsInterface}."
      },
      "symbol()": {
        "details": "See {IERC721Metadata-symbol}."
      },
      "tokenURI(uint256)": {
        "details": "See {IERC721Metadata-tokenURI}."
      },
      "transferFrom(address,address,uint256)": {
        "details": "See {IERC721-transferFrom}."
      }
    },
    "version": 1
  },
  "userdoc": {
    "events": {
      "transferDeadlineChanged(uint256,uint256,address)": {
        "notice": "Emitted when transferDeadline is set."
      }
    },
    "kind": "user",
    "methods": {
      "get_transferDeadline()": {
        "notice": "Returns transferDeadline."
      },
      "set_transferDeadline(uint256)": {
        "notice": "Sets transferDeadline."
      }
    },
    "version": 1
  },
  "storageLayout": {
    "storage": [
      {
        "astId": 25,
        "contract": "contracts/TicketOffice1.sol:TicketOffice1",
        "label": "_name",
        "offset": 0,
        "slot": "0",
        "type": "t_string_storage"
      },
      {
        "astId": 27,
        "contract": "contracts/TicketOffice1.sol:TicketOffice1",
        "label": "_symbol",
        "offset": 0,
        "slot": "1",
        "type": "t_string_storage"
      },
      {
        "astId": 31,
        "contract": "contracts/TicketOffice1.sol:TicketOffice1",
        "label": "_owners",
        "offset": 0,
        "slot": "2",
        "type": "t_mapping(t_uint256,t_address)"
      },
      {
        "astId": 35,
        "contract": "contracts/TicketOffice1.sol:TicketOffice1",
        "label": "_balances",
        "offset": 0,
        "slot": "3",
        "type": "t_mapping(t_address,t_uint256)"
      },
      {
        "astId": 39,
        "contract": "contracts/TicketOffice1.sol:TicketOffice1",
        "label": "_tokenApprovals",
        "offset": 0,
        "slot": "4",
        "type": "t_mapping(t_uint256,t_address)"
      },
      {
        "astId": 45,
        "contract": "contracts/TicketOffice1.sol:TicketOffice1",
        "label": "_operatorApprovals",
        "offset": 0,
        "slot": "5",
        "type": "t_mapping(t_address,t_mapping(t_address,t_bool))"
      },
      {
        "astId": 1636,
        "contract": "contracts/TicketOffice1.sol:TicketOffice1",
        "label": "_tokenIds",
        "offset": 0,
        "slot": "6",
        "type": "t_struct(Counter)1316_storage"
      },
      {
        "astId": 1638,
        "contract": "contracts/TicketOffice1.sol:TicketOffice1",
        "label": "_transferDeadline",
        "offset": 0,
        "slot": "7",
        "type": "t_uint256"
      }
    ],
    "types": {
      "t_address": {
        "encoding": "inplace",
        "label": "address",
        "numberOfBytes": "20"
      },
      "t_bool": {
        "encoding": "inplace",
        "label": "bool",
        "numberOfBytes": "1"
      },
      "t_mapping(t_address,t_bool)": {
        "encoding": "mapping",
        "key": "t_address",
        "label": "mapping(address => bool)",
        "numberOfBytes": "32",
        "value": "t_bool"
      },
      "t_mapping(t_address,t_mapping(t_address,t_bool))": {
        "encoding": "mapping",
        "key": "t_address",
        "label": "mapping(address => mapping(address => bool))",
        "numberOfBytes": "32",
        "value": "t_mapping(t_address,t_bool)"
      },
      "t_mapping(t_address,t_uint256)": {
        "encoding": "mapping",
        "key": "t_address",
        "label": "mapping(address => uint256)",
        "numberOfBytes": "32",
        "value": "t_uint256"
      },
      "t_mapping(t_uint256,t_address)": {
        "encoding": "mapping",
        "key": "t_uint256",
        "label": "mapping(uint256 => address)",
        "numberOfBytes": "32",
        "value": "t_address"
      },
      "t_string_storage": {
        "encoding": "bytes",
        "label": "string",
        "numberOfBytes": "32"
      },
      "t_struct(Counter)1316_storage": {
        "encoding": "inplace",
        "label": "struct Counters.Counter",
        "members": [
          {
            "astId": 1315,
            "contract": "contracts/TicketOffice1.sol:TicketOffice1",
            "label": "_value",
            "offset": 0,
            "slot": "0",
            "type": "t_uint256"
          }
        ],
        "numberOfBytes": "32"
      },
      "t_uint256": {
        "encoding": "inplace",
        "label": "uint256",
        "numberOfBytes": "32"
      }
    }
  }
}